8=FIX.4.4|9=83|35=A|34=1|49=RTI_ACCUMULATOR|52=20260511-04:14:39.213|56=RTI_GENERATOR|98=0|108=30|10=128|8=FIX.4.4|9=71|35=0|34=2|49=RTI_ACCUMULATOR|52=20260511-04:15:09.224|56=RTI_GENERATOR|10=084|8=FIX.4.4|9=71|35=0|34=3|49=RTI_ACCUMULATOR|52=20260511-04:15:39.260|56=RTI_GENERATOR|10=088|8=FIX.4.4|9=71|35=0|34=4|49=RTI_ACCUMULATOR|52=20260511-04:16:09.288|56=RTI_GENERATOR|10=097|8=FIX.4.4|9=71|35=0|34=5|49=RTI_ACCUMULATOR|52=20260511-04:16:39.314|56=RTI_GENERATOR|10=091|8=FIX.4.4|9=71|35=0|34=6|49=RTI_ACCUMULATOR|52=20260511-04:17:09.338|56=RTI_GENERATOR|10=096|8=FIX.4.4|9=71|35=0|34=7|49=RTI_ACCUMULATOR|52=20260511-04:17:39.358|56=RTI_GENERATOR|10=102|8=FIX.4.4|9=71|35=0|34=8|49=RTI_ACCUMULATOR|52=20260511-04:18:09.398|56=RTI_GENERATOR|10=105|8=FIX.4.4|9=71|35=0|34=9|49=RTI_ACCUMULATOR|52=20260511-04:18:39.418|56=RTI_GENERATOR|10=102|8=FIX.4.4|9=72|35=0|34=10|49=RTI_ACCUMULATOR|52=20260511-04:19:09.942|56=RTI_GENERATOR|10=143|8=FIX.4.4|9=72|35=0|34=11|49=RTI_ACCUMULATOR|52=20260511-04:19:40.532|56=RTI_GENERATOR|10=134|8=FIX.4.4|9=72|35=0|34=12|49=RTI_ACCUMULATOR|52=20260511-04:20:10.612|56=RTI_GENERATOR|10=123|8=FIX.4.4|9=72|35=0|34=13|49=RTI_ACCUMULATOR|52=20260511-04:20:40.629|56=RTI_GENERATOR|10=135|