8=FIX.4.4|9=83|35=A|34=1|49=RTI_ACCUMULATOR|52=20260514-02:29:03.664|56=RTI_GENERATOR|98=0|108=30|10=136|8=FIX.4.4|9=71|35=0|34=2|49=RTI_ACCUMULATOR|52=20260514-02:29:33.694|56=RTI_GENERATOR|10=098|8=FIX.4.4|9=71|35=0|34=3|49=RTI_ACCUMULATOR|52=20260514-02:30:03.727|56=RTI_GENERATOR|10=085|8=FIX.4.4|9=71|35=0|34=4|49=RTI_ACCUMULATOR|52=20260514-02:30:33.739|56=RTI_GENERATOR|10=092|8=FIX.4.4|9=71|35=0|34=5|49=RTI_ACCUMULATOR|52=20260514-02:31:03.772|56=RTI_GENERATOR|10=088|8=FIX.4.4|9=71|35=0|34=6|49=RTI_ACCUMULATOR|52=20260514-02:31:33.782|56=RTI_GENERATOR|10=093|8=FIX.4.4|9=247|35=8|34=7|49=RTI_ACCUMULATOR|52=20260514-02:31:35.933|56=RTI_GENERATOR|6=0|11=f72c02be-95f9-420d-9161-217b535cc527|14=0|17=8d902c25-424d-4783-a260-4616abf9f9c8|37=104815bd-23ec-4c59-a095-20b6ba7d7883|38=200|39=0|44=100|54=1|55=PETR4|150=0|151=200|10=137|8=FIX.4.4|9=247|35=8|34=8|49=RTI_ACCUMULATOR|52=20260514-02:31:52.542|56=RTI_GENERATOR|6=0|11=6503e995-7414-4665-84d3-137daf4adbc7|14=0|17=43c58822-30c3-4f8e-bd42-7a68249c225a|37=fa7e9f9d-a312-4222-b7f3-7520ca99cf21|38=200|39=0|44=100|54=1|55=VALE3|150=0|151=200|10=218|8=FIX.4.4|9=247|35=8|34=9|49=RTI_ACCUMULATOR|52=20260514-02:31:53.362|56=RTI_GENERATOR|6=0|11=8e26c3aa-2449-4bac-9163-2c17b473b5b9|14=0|17=caec1c42-233f-4cbf-b634-b8758fc48e92|37=833eeb50-8d37-4225-a7ad-1694d3119599|38=200|39=0|44=100|54=1|55=VALE3|150=0|151=200|10=105|8=FIX.4.4|9=248|35=8|34=10|49=RTI_ACCUMULATOR|52=20260514-02:31:57.410|56=RTI_GENERATOR|6=0|11=79e38f56-8968-496b-83a3-5e1fb0550e63|14=0|17=727fbc70-ca1a-451e-88ce-d3cceefbe4ba|37=c0b7c974-18b0-41fb-98fd-e3c2097e5d32|38=200|39=0|44=100|54=1|55=VIIA4|150=0|151=200|10=196|8=FIX.4.4|9=72|35=0|34=11|49=RTI_ACCUMULATOR|52=20260514-02:32:27.423|56=RTI_GENERATOR|10=134|8=FIX.4.4|9=72|35=0|34=12|49=RTI_ACCUMULATOR|52=20260514-02:32:57.443|56=RTI_GENERATOR|10=140|8=FIX.4.4|9=72|35=0|34=13|49=RTI_ACCUMULATOR|52=20260514-02:33:27.461|56=RTI_GENERATOR|10=139|8=FIX.4.4|9=72|35=0|34=14|49=RTI_ACCUMULATOR|52=20260514-02:33:57.478|56=RTI_GENERATOR|10=151|8=FIX.4.4|9=72|35=0|34=15|49=RTI_ACCUMULATOR|52=20260514-02:34:27.497|56=RTI_GENERATOR|10=151|8=FIX.4.4|9=72|35=0|34=16|49=RTI_ACCUMULATOR|52=20260514-02:34:57.511|56=RTI_GENERATOR|10=142|8=FIX.4.4|9=72|35=0|34=17|49=RTI_ACCUMULATOR|52=20260514-02:35:27.530|56=RTI_GENERATOR|10=142|8=FIX.4.4|9=72|35=0|34=18|49=RTI_ACCUMULATOR|52=20260514-02:35:57.548|56=RTI_GENERATOR|10=155|8=FIX.4.4|9=72|35=0|34=19|49=RTI_ACCUMULATOR|52=20260514-02:36:27.570|56=RTI_GENERATOR|10=149|8=FIX.4.4|9=72|35=0|34=20|49=RTI_ACCUMULATOR|52=20260514-02:36:57.581|56=RTI_GENERATOR|10=146|8=FIX.4.4|9=72|35=0|34=21|49=RTI_ACCUMULATOR|52=20260514-02:37:27.598|56=RTI_GENERATOR|10=153|8=FIX.4.4|9=72|35=0|34=22|49=RTI_ACCUMULATOR|52=20260514-02:37:57.612|56=RTI_GENERATOR|10=144|8=FIX.4.4|9=72|35=0|34=23|49=RTI_ACCUMULATOR|52=20260514-02:38:27.637|56=RTI_GENERATOR|10=150|8=FIX.4.4|9=72|35=0|34=24|49=RTI_ACCUMULATOR|52=20260514-02:38:57.652|56=RTI_GENERATOR|10=151|8=FIX.4.4|9=72|35=0|34=25|49=RTI_ACCUMULATOR|52=20260514-02:39:27.676|56=RTI_GENERATOR|10=156|8=FIX.4.4|9=72|35=0|34=26|49=RTI_ACCUMULATOR|52=20260514-02:39:57.687|56=RTI_GENERATOR|10=162|8=FIX.4.4|9=72|35=0|34=27|49=RTI_ACCUMULATOR|52=20260514-02:40:27.702|56=RTI_GENERATOR|10=140|8=FIX.4.4|9=72|35=0|34=28|49=RTI_ACCUMULATOR|52=20260514-02:40:57.720|56=RTI_GENERATOR|10=144|8=FIX.4.4|9=72|35=0|34=29|49=RTI_ACCUMULATOR|52=20260514-02:41:27.738|56=RTI_GENERATOR|10=152|8=FIX.4.4|9=72|35=0|34=30|49=RTI_ACCUMULATOR|52=20260514-02:41:57.754|56=RTI_GENERATOR|10=145|8=FIX.4.4|9=72|35=0|34=31|49=RTI_ACCUMULATOR|52=20260514-02:42:27.769|56=RTI_GENERATOR|10=150|8=FIX.4.4|9=72|35=0|34=32|49=RTI_ACCUMULATOR|52=20260514-02:42:57.785|56=RTI_GENERATOR|10=152|8=FIX.4.4|9=72|35=0|34=33|49=RTI_ACCUMULATOR|52=20260514-02:43:27.805|56=RTI_GENERATOR|10=144|8=FIX.4.4|9=72|35=0|34=34|49=RTI_ACCUMULATOR|52=20260514-02:43:57.823|56=RTI_GENERATOR|10=148|8=FIX.4.4|9=72|35=0|34=35|49=RTI_ACCUMULATOR|52=20260514-02:44:27.841|56=RTI_GENERATOR|10=147|8=FIX.4.4|9=72|35=0|34=36|49=RTI_ACCUMULATOR|52=20260514-02:44:57.864|56=RTI_GENERATOR|10=156|8=FIX.4.4|9=72|35=0|34=37|49=RTI_ACCUMULATOR|52=20260514-02:45:27.882|56=RTI_GENERATOR|10=155|8=FIX.4.4|9=72|35=0|34=38|49=RTI_ACCUMULATOR|52=20260514-02:45:57.895|56=RTI_GENERATOR|10=163|8=FIX.4.4|9=72|35=0|34=39|49=RTI_ACCUMULATOR|52=20260514-02:46:27.913|56=RTI_GENERATOR|10=153|8=FIX.4.4|9=72|35=0|34=40|49=RTI_ACCUMULATOR|52=20260514-02:46:57.927|56=RTI_GENERATOR|10=153|8=FIX.4.4|9=81|35=1|34=41|49=RTI_ACCUMULATOR|52=20260514-02:47:47.715|56=RTI_GENERATOR|112=TEST|10=168|8=FIX.4.4|9=81|35=0|34=42|49=RTI_ACCUMULATOR|52=20260514-02:47:47.774|56=RTI_GENERATOR|112=TEST|10=173|8=FIX.4.4|9=72|35=0|34=43|49=RTI_ACCUMULATOR|52=20260514-02:48:17.799|56=RTI_GENERATOR|10=161|