8=FIX.4.4|9=83|35=A|34=1|49=RTI_ACCUMULATOR|52=20260512-01:39:46.786|56=RTI_GENERATOR|98=0|108=30|10=146|8=FIX.4.4|9=246|35=8|34=2|49=RTI_ACCUMULATOR|52=20260512-01:40:08.908|56=RTI_GENERATOR|6=0|11=325e6d8e-10ca-4a02-9e86-08045c07e1d4|14=0|17=cbb49e2a-6700-48ed-8d7a-c7ae613308ca|37=b513adfe-6b02-4d29-8179-7f80a7c7c9ff|38=500|39=0|44=10|54=1|55=VALE3|150=0|151=500|10=239|8=FIX.4.4|9=246|35=8|34=3|49=RTI_ACCUMULATOR|52=20260512-01:40:16.036|56=RTI_GENERATOR|6=0|11=70122415-13aa-4b63-b24c-2df49956b998|14=0|17=68f71c04-cc03-4110-8d23-8d8f270eae1f|37=122d1888-993d-4ef4-835e-8b40f5abc294|38=500|39=0|44=10|54=1|55=VALE3|150=0|151=500|10=109|8=FIX.4.4|9=246|35=8|34=4|49=RTI_ACCUMULATOR|52=20260512-01:40:18.767|56=RTI_GENERATOR|6=0|11=56b2421b-f519-44fe-80d0-9e985fd06dea|14=0|17=ef6922ff-ac00-4075-810f-aff5f029a038|37=360d5fa0-364f-4850-9fa0-79fbee298ab5|38=500|39=0|44=10|54=1|55=VALE3|150=0|151=500|10=211|8=FIX.4.4|9=247|35=8|34=5|49=RTI_ACCUMULATOR|52=20260512-01:40:24.831|56=RTI_GENERATOR|6=0|11=5104f005-561a-4401-b2f1-8983c8d8bd8b|14=0|17=4ad9d0d5-3b05-44a4-8c6f-a1d375a00a7d|37=60a4ceda-6833-4f70-ba3b-c1985cf74aac|38=500|39=0|44=100|54=1|55=VALE3|150=0|151=500|10=250|8=FIX.4.4|9=247|35=8|34=6|49=RTI_ACCUMULATOR|52=20260512-01:40:26.808|56=RTI_GENERATOR|6=0|11=125134d8-a2b7-4521-ac3f-7478eeb22fec|14=0|17=b2f6e236-42e7-4f6b-b951-31b41558a7bc|37=9abfc63e-3f1f-4eaf-8311-1e3736e29bac|38=500|39=0|44=100|54=1|55=VALE3|150=0|151=500|10=072|8=FIX.4.4|9=247|35=8|34=7|49=RTI_ACCUMULATOR|52=20260512-01:40:28.898|56=RTI_GENERATOR|6=0|11=a42b7c30-97ac-45bc-914d-4da905cf833f|14=0|17=bd133064-45a5-41df-9ba0-6ae626b0549b|37=91249a88-3b9f-474b-b487-87b157f1141a|38=500|39=0|44=100|54=1|55=VALE3|150=0|151=500|10=060|8=FIX.4.4|9=247|35=8|34=8|49=RTI_ACCUMULATOR|52=20260512-01:40:30.455|56=RTI_GENERATOR|6=0|11=78f3fa13-970d-4c7c-8dc9-63c5954770e3|14=0|17=4bf1b6d0-2888-42c1-bdf9-40c970f44594|37=9a06b39d-d896-46e5-b592-00d3e1a02ec7|38=500|39=0|44=100|54=1|55=VALE3|150=0|151=500|10=032|8=FIX.4.4|9=247|35=8|34=9|49=RTI_ACCUMULATOR|52=20260512-01:40:46.090|56=RTI_GENERATOR|6=0|11=fd95a258-fd05-4dbb-a6b9-a1b31e8ad634|14=0|17=5570b7b7-61fe-4598-8cd6-b89a6a355584|37=2b73d22d-a44a-4e70-82e6-23ed0e6dfd31|38=500|39=0|44=800|54=1|55=VALE3|150=0|151=500|10=051|8=FIX.4.4|9=248|35=8|34=10|49=RTI_ACCUMULATOR|52=20260512-01:40:49.741|56=RTI_GENERATOR|6=0|11=d727195e-d7d8-4218-bdd7-006b16d9f2bc|14=0|17=f9b25ecc-4e31-429f-bb74-4e6c0632b4ca|37=849f276c-6ed9-4838-98e8-0c536336b33d|38=500|39=0|44=800|54=1|55=VALE3|150=0|151=500|10=235|8=FIX.4.4|9=248|35=8|34=11|49=RTI_ACCUMULATOR|52=20260512-01:40:51.293|56=RTI_GENERATOR|6=0|11=6edef637-76d8-4cb3-ae3d-ff19e9e12888|14=0|17=5d5ade44-b7eb-49af-8147-d5b82f333daa|37=42a3faf5-da45-42a2-9e96-8509910815ad|38=500|39=0|44=800|54=1|55=VALE3|150=0|151=500|10=214|8=FIX.4.4|9=248|35=8|34=12|49=RTI_ACCUMULATOR|52=20260512-01:40:53.010|56=RTI_GENERATOR|6=0|11=9518efc6-2ae6-4331-9fa0-a228dbe0e317|14=0|17=6a0a7340-db2e-4699-b2ef-023ffeb0bb93|37=4d0efd55-2d00-495f-9d2d-34ced27276e7|38=500|39=0|44=800|54=1|55=VALE3|150=0|151=500|10=114|8=FIX.4.4|9=248|35=8|34=13|49=RTI_ACCUMULATOR|52=20260512-01:40:53.212|56=RTI_GENERATOR|6=0|11=65d2ee29-d9d3-4a7b-a116-53fb8cf7aec2|14=0|17=79e61827-10e7-493e-806f-f4989457db1a|37=a339ad09-9df2-40a7-8a26-c2b907057cd1|38=500|39=0|44=800|54=1|55=VALE3|150=0|151=500|10=218|8=FIX.4.4|9=248|35=8|34=14|49=RTI_ACCUMULATOR|52=20260512-01:40:53.402|56=RTI_GENERATOR|6=0|11=75b8de7d-3cad-4899-94b4-5f285b2728b3|14=0|17=04111f4d-eed8-4f5d-b88c-325b8895a57c|37=aba9f4d3-ba73-4bb5-9617-1f06f545cb7d|38=500|39=0|44=800|54=1|55=VALE3|150=0|151=500|10=117|8=FIX.4.4|9=248|35=8|34=15|49=RTI_ACCUMULATOR|52=20260512-01:40:53.564|56=RTI_GENERATOR|6=0|11=1f9d1347-8889-42c1-a110-da2504154d0e|14=0|17=88c65ada-e9e0-40ca-999b-ab19f3345408|37=784bc5fb-2973-4fec-b5a0-3e94197fa4b4|38=500|39=0|44=800|54=1|55=VALE3|150=0|151=500|10=161|8=FIX.4.4|9=248|35=8|34=16|49=RTI_ACCUMULATOR|52=20260512-01:40:53.759|56=RTI_GENERATOR|6=0|11=9cd089c4-e5a8-4ef3-bf0a-fbc37e4ef79c|14=0|17=fef3c4be-0776-421b-b180-8013d43de1b4|37=4cfc24da-28f5-47d9-8f82-d81351a208f3|38=500|39=0|44=800|54=1|55=VALE3|150=0|151=500|10=252|8=FIX.4.4|9=248|35=8|34=17|49=RTI_ACCUMULATOR|52=20260512-01:40:53.941|56=RTI_GENERATOR|6=0|11=7bbd38a3-4d96-4286-b81c-d61f7741ab68|14=0|17=2a346a67-5d37-448f-9445-efc1688c5e59|37=d00a29b7-46a7-4d62-8d9e-adc8a51d205d|38=500|39=0|44=800|54=1|55=VALE3|150=0|151=500|10=189|8=FIX.4.4|9=248|35=8|34=18|49=RTI_ACCUMULATOR|52=20260512-01:40:54.531|56=RTI_GENERATOR|6=0|11=afdf57a1-3588-4260-8d67-a9a1e3fda310|14=0|17=6c5f9cb1-64b1-487d-8b6a-289f4739fdf3|37=7b5430ad-4fde-48ad-b955-135bbfa68619|38=500|39=0|44=800|54=1|55=VALE3|150=0|151=500|10=117|8=FIX.4.4|9=248|35=8|34=19|49=RTI_ACCUMULATOR|52=20260512-01:40:54.702|56=RTI_GENERATOR|6=0|11=1e50c559-99f8-4e26-936b-6cd8ff6ef774|14=0|17=8159732e-338a-41b1-86e3-3fbdaaaf4c59|37=277be27c-b268-4782-ad05-f3313c8a1619|38=500|39=0|44=800|54=1|55=VALE3|150=0|151=500|10=148|8=FIX.4.4|9=248|35=8|34=20|49=RTI_ACCUMULATOR|52=20260512-01:40:54.901|56=RTI_GENERATOR|6=0|11=58d9f217-898e-4e91-a9ac-5d161bdb3356|14=0|17=b69fccc8-63fd-4663-9c4c-11abdd95b488|37=c5a6ec32-58d8-452d-9d9a-2eb8922c9f02|38=500|39=0|44=800|54=1|55=VALE3|150=0|151=500|10=130|8=FIX.4.4|9=248|35=8|34=21|49=RTI_ACCUMULATOR|52=20260512-01:40:55.104|56=RTI_GENERATOR|6=0|11=5a259a6f-a0a4-46d4-bbc4-b3a7c8bf54eb|14=0|17=edc3c0fd-f6d6-439a-9393-e518a491b394|37=8be4791b-591b-4a23-a2e1-f962314f6cc7|38=500|39=0|44=800|54=1|55=VALE3|150=0|151=500|10=180|8=FIX.4.4|9=250|35=8|34=22|49=RTI_ACCUMULATOR|52=20260512-01:41:03.147|56=RTI_GENERATOR|6=0|11=a0b6f3fd-2ea2-4e3d-8c4d-54456d58cf9a|14=0|17=0bcb49bf-5694-4f55-b40e-edf9e6d811ee|37=67b5e059-385c-4fba-b429-52f9a7ce7c78|38=1000|39=0|44=800|54=1|55=VALE3|150=0|151=1000|10=186|8=FIX.4.4|9=250|35=8|34=23|49=RTI_ACCUMULATOR|52=20260512-01:41:06.022|56=RTI_GENERATOR|6=0|11=4e7dbe14-b87c-45b1-b551-8eae15e9a3d1|14=0|17=24993c39-e60b-45f9-ab30-cb355643755d|37=a8cf4248-3da1-4153-86ea-e037ff51614f|38=1000|39=0|44=800|54=1|55=VALE3|150=0|151=1000|10=018|8=FIX.4.4|9=250|35=8|34=24|49=RTI_ACCUMULATOR|52=20260512-01:41:07.153|56=RTI_GENERATOR|6=0|11=ea63c8fa-9fdc-461f-a90c-51437faeb7e5|14=0|17=47fc8493-e6b1-4dac-96c8-a129e272841b|37=ab84a26c-59b9-4a3e-b1ba-d532bd74b214|38=1000|39=0|44=800|54=1|55=VALE3|150=0|151=1000|10=102|8=FIX.4.4|9=250|35=8|34=25|49=RTI_ACCUMULATOR|52=20260512-01:41:07.691|56=RTI_GENERATOR|6=0|11=6f79e081-3d5f-466b-a211-ca11be889a2f|14=0|17=0ccef571-1f23-4b32-b56b-423e4eb33563|37=55877fd9-fc3d-4044-bd92-7d3630134fe6|38=1000|39=0|44=800|54=1|55=VALE3|150=0|151=1000|10=238|8=FIX.4.4|9=250|35=8|34=26|49=RTI_ACCUMULATOR|52=20260512-01:41:07.915|56=RTI_GENERATOR|6=0|11=0d5627bf-7eb2-4545-90c7-3fb3d82b702f|14=0|17=9872af2e-825d-4cee-97a4-1e72d4fa2c8a|37=1671b9bf-268e-4239-b967-b165e053ab51|38=1000|39=0|44=800|54=1|55=VALE3|150=0|151=1000|10=047|8=FIX.4.4|9=250|35=8|34=27|49=RTI_ACCUMULATOR|52=20260512-01:41:08.130|56=RTI_GENERATOR|6=0|11=23f2a563-63f7-43ef-b96e-5f1688ad9476|14=0|17=8825b3a6-3e23-46db-90fe-32549b327721|37=4037ca66-b439-4d06-8776-ffb4af8f84d5|38=1000|39=0|44=800|54=1|55=VALE3|150=0|151=1000|10=086|8=FIX.4.4|9=250|35=8|34=28|49=RTI_ACCUMULATOR|52=20260512-01:41:08.316|56=RTI_GENERATOR|6=0|11=0701e488-e0bf-481e-9ea3-58a96f25c574|14=0|17=71335888-ba31-40a7-b6b5-5ffecb407035|37=cd26f5f1-57d8-4af9-a4d2-9d1cbcf59697|38=1000|39=0|44=800|54=1|55=VALE3|150=0|151=1000|10=059|8=FIX.4.4|9=250|35=8|34=29|49=RTI_ACCUMULATOR|52=20260512-01:41:08.886|56=RTI_GENERATOR|6=0|11=a8870723-04dd-4644-8fac-d8d51afe56a3|14=0|17=7e729587-d4e9-4f00-92ed-01ba3c389c48|37=74ca524e-cf20-43da-9fbb-e3b61e9c0555|38=1000|39=0|44=800|54=1|55=VALE3|150=0|151=1000|10=152|8=FIX.4.4|9=250|35=8|34=30|49=RTI_ACCUMULATOR|52=20260512-01:41:09.085|56=RTI_GENERATOR|6=0|11=982107ed-3ac8-4f62-a2e8-2e0934e2326f|14=0|17=1ea74d5b-5a60-4487-bcc2-50ebe10c6077|37=88aa06d7-5245-4249-8227-219238519771|38=1000|39=0|44=800|54=1|55=VALE3|150=0|151=1000|10=109|8=FIX.4.4|9=250|35=8|34=31|49=RTI_ACCUMULATOR|52=20260512-01:41:09.257|56=RTI_GENERATOR|6=0|11=d0db5541-6103-44c1-9c9c-aa2dfe058a0b|14=0|17=fdbfd7ff-519b-4bf8-b2ab-85b8df78544a|37=4c466a81-083b-4d3a-b7b2-7d77346f8175|38=1000|39=0|44=800|54=1|55=VALE3|150=0|151=1000|10=013|8=FIX.4.4|9=250|35=8|34=32|49=RTI_ACCUMULATOR|52=20260512-01:41:09.441|56=RTI_GENERATOR|6=0|11=f3829ebe-9231-4584-a78d-222be8826f20|14=0|17=60df8675-df29-495b-8ca4-834d898e1455|37=ca288ef6-9c50-43f8-b806-b3f667deb379|38=1000|39=0|44=800|54=1|55=VALE3|150=0|151=1000|10=157|8=FIX.4.4|9=250|35=8|34=33|49=RTI_ACCUMULATOR|52=20260512-01:41:09.597|56=RTI_GENERATOR|6=0|11=2235d096-5527-4ed8-a687-88a609ce17d5|14=0|17=763c3c35-9fee-4b70-9140-eeaefc585970|37=76df19ba-0eb0-464e-999e-d3db2da63337|38=1000|39=0|44=800|54=1|55=VALE3|150=0|151=1000|10=031|8=FIX.4.4|9=250|35=8|34=34|49=RTI_ACCUMULATOR|52=20260512-01:41:09.772|56=RTI_GENERATOR|6=0|11=f42afcd6-511f-4a6f-bafc-fefb44548f10|14=0|17=c9b6d868-c4e2-460b-89fb-327a4732d363|37=1d16ea08-d77e-4650-9cea-e3e464345e3f|38=1000|39=0|44=800|54=1|55=VALE3|150=0|151=1000|10=031|8=FIX.4.4|9=250|35=8|34=35|49=RTI_ACCUMULATOR|52=20260512-01:41:09.974|56=RTI_GENERATOR|6=0|11=5d6dfa1d-2be8-42c5-ba62-6d952a4a9d06|14=0|17=bc9bc1af-a4b2-48d8-96e4-77853912a4e0|37=e6499d66-da45-408f-bb01-7911b5716691|38=1000|39=0|44=800|54=1|55=VALE3|150=0|151=1000|10=051|8=FIX.4.4|9=250|35=8|34=36|49=RTI_ACCUMULATOR|52=20260512-01:41:10.159|56=RTI_GENERATOR|6=0|11=e21674ca-b9a1-40a2-b595-1fd575be0e9e|14=0|17=401d5b9a-1b07-4194-ae82-96126b15554d|37=c5a4a82f-4250-45e6-88d2-737e8c531a05|38=1000|39=0|44=800|54=1|55=VALE3|150=0|151=1000|10=077|8=FIX.4.4|9=250|35=8|34=37|49=RTI_ACCUMULATOR|52=20260512-01:41:10.344|56=RTI_GENERATOR|6=0|11=67896942-573d-4263-9d85-9ecb20ecffad|14=0|17=170811fd-8a15-4c2c-b656-69a8bcd1b26b|37=67614ed0-3a7c-4a83-8c84-dcc150cebe1a|38=1000|39=0|44=800|54=1|55=VALE3|150=0|151=1000|10=175|8=FIX.4.4|9=250|35=8|34=38|49=RTI_ACCUMULATOR|52=20260512-01:41:10.531|56=RTI_GENERATOR|6=0|11=43ffbb4d-660b-4cb1-9e9f-ae8d7744873e|14=0|17=7ccb2ffe-188f-4de9-88f4-e004b20adde4|37=0df3c301-22ae-48f1-8b89-c8ca2c9c9cdf|38=1000|39=0|44=800|54=1|55=VALE3|150=0|151=1000|10=063|8=FIX.4.4|9=250|35=8|34=39|49=RTI_ACCUMULATOR|52=20260512-01:41:12.284|56=RTI_GENERATOR|6=0|11=41232c73-bfe7-45ba-b9e0-10ea0972d915|14=0|17=33727a9e-31cf-4f34-9c57-ee9f1559861d|37=145a0a87-14da-4496-a6a7-80803b832dde|38=1000|39=0|44=800|54=1|55=VALE3|150=0|151=1000|10=148|8=FIX.4.4|9=250|35=8|34=40|49=RTI_ACCUMULATOR|52=20260512-01:41:12.629|56=RTI_GENERATOR|6=0|11=36747349-3cd6-4979-80b3-c04dffa3ff57|14=0|17=a0c5370e-174e-4ff4-9861-721cc7267f53|37=8eb85e58-17d9-4201-89a5-a5aba8fad446|38=1000|39=0|44=800|54=1|55=VALE3|150=0|151=1000|10=178|8=FIX.4.4|9=250|35=8|34=41|49=RTI_ACCUMULATOR|52=20260512-01:41:12.804|56=RTI_GENERATOR|6=0|11=ecfbf2ce-6c56-4eb8-a95b-6cb9d1762f47|14=0|17=3ec9c584-34a4-4e41-b462-9162584e0c4a|37=a8ad0046-8b5a-4a1b-8ee4-5f216f56a034|38=1000|39=0|44=800|54=1|55=VALE3|150=0|151=1000|10=165|8=FIX.4.4|9=250|35=8|34=42|49=RTI_ACCUMULATOR|52=20260512-01:41:13.007|56=RTI_GENERATOR|6=0|11=b721529d-38ad-4005-b5e8-3ec43f8f85d9|14=0|17=a2b0948c-0f0c-4bea-8918-f7aaf1a12a59|37=74647eb3-bbc5-4c16-95e8-7cd025468b10|38=1000|39=0|44=800|54=1|55=VALE3|150=0|151=1000|10=069|8=FIX.4.4|9=250|35=8|34=43|49=RTI_ACCUMULATOR|52=20260512-01:41:13.218|56=RTI_GENERATOR|6=0|11=a25e6101-7c52-446c-ad40-00513dac2bc5|14=0|17=b1c3d093-8f60-4384-ac8b-cddc0edaa35c|37=408afdd7-5002-4081-b602-904730439ee2|38=1000|39=0|44=800|54=1|55=VALE3|150=0|151=1000|10=213|8=FIX.4.4|9=250|35=8|34=44|49=RTI_ACCUMULATOR|52=20260512-01:41:13.616|56=RTI_GENERATOR|6=0|11=a3b19419-1626-4e4e-aa66-4dbc57e0ceb8|14=0|17=5d82e49d-ae23-4ec7-b93c-92aef08f1ab1|37=f1544401-49b9-45a9-9a6b-1dae00dc1b70|38=1000|39=0|44=800|54=1|55=VALE3|150=0|151=1000|10=247|8=FIX.4.4|9=250|35=8|34=45|49=RTI_ACCUMULATOR|52=20260512-01:41:13.802|56=RTI_GENERATOR|6=0|11=46e58864-229c-42b5-9047-af0c4e55d286|14=0|17=e0b66bec-a642-4b31-b0a9-6ec1e6465cd1|37=0f8c3074-5e0b-46a0-b8ca-0c5e059915f9|38=1000|39=0|44=800|54=1|55=VALE3|150=0|151=1000|10=226|8=FIX.4.4|9=250|35=8|34=46|49=RTI_ACCUMULATOR|52=20260512-01:41:14.003|56=RTI_GENERATOR|6=0|11=9d3d295b-ac32-4821-8737-120d5a3f8b15|14=0|17=54fdf17a-198a-45af-8e7d-4b463dd29026|37=20542338-ef1c-4005-a85c-9b72ae1ad1b7|38=1000|39=0|44=800|54=1|55=VALE3|150=0|151=1000|10=165|8=FIX.4.4|9=250|35=8|34=47|49=RTI_ACCUMULATOR|52=20260512-01:41:14.229|56=RTI_GENERATOR|6=0|11=9a3e0d59-b65c-480e-8a15-24c92a938248|14=0|17=1ca6ccda-1540-4793-a6fa-2b894f693552|37=f5d56a8d-1a27-4abf-9aa7-4a51ae36984a|38=1000|39=0|44=800|54=1|55=VALE3|150=0|151=1000|10=040|8=FIX.4.4|9=250|35=8|34=48|49=RTI_ACCUMULATOR|52=20260512-01:41:15.105|56=RTI_GENERATOR|6=0|11=cd00ac2a-35d0-484e-a632-e7dd4a6453e0|14=0|17=91501627-df1b-4a0a-a97d-2e9ac60000ed|37=3581886f-45e6-40af-9ccc-e6d6a078b10c|38=1000|39=0|44=800|54=1|55=VALE3|150=0|151=1000|10=131|8=FIX.4.4|9=250|35=8|34=49|49=RTI_ACCUMULATOR|52=20260512-01:41:15.301|56=RTI_GENERATOR|6=0|11=848010be-2e0d-4301-abe1-a5a385524992|14=0|17=13ee3739-a520-4dad-a795-6c09389b7a90|37=f1c1a037-06c8-4d99-986e-5629923a49c0|38=1000|39=0|44=800|54=1|55=VALE3|150=0|151=1000|10=204|8=FIX.4.4|9=250|35=8|34=50|49=RTI_ACCUMULATOR|52=20260512-01:41:21.361|56=RTI_GENERATOR|6=0|11=4e637260-bf8a-4543-aa72-1aa716d98420|14=0|17=3ba4aa5d-40c6-49e1-83bb-add1fe831cec|37=065a8fea-1938-4d9f-ac9d-bc550ddb0eb4|38=1000|39=0|44=800|54=1|55=VALE3|150=0|151=1000|10=121|8=FIX.4.4|9=250|35=8|34=51|49=RTI_ACCUMULATOR|52=20260512-01:41:21.544|56=RTI_GENERATOR|6=0|11=463d501e-c8f6-4be6-adde-1ea8c0258dc5|14=0|17=b65f9348-c87f-4b04-a3ba-f377b03e8ad8|37=abe8a579-4109-4e67-8bb0-b7b2a274d6c8|38=1000|39=0|44=800|54=1|55=VALE3|150=0|151=1000|10=066|8=FIX.4.4|9=250|35=8|34=52|49=RTI_ACCUMULATOR|52=20260512-01:41:21.748|56=RTI_GENERATOR|6=0|11=0b605543-f66c-40eb-9d6e-e59386874ced|14=0|17=920800d6-0601-432e-adf4-7587e0ccc8b8|37=86696aa4-4dfe-489e-917f-2ae073e3f124|38=1000|39=0|44=800|54=1|55=VALE3|150=0|151=1000|10=222|8=FIX.4.4|9=250|35=8|34=53|49=RTI_ACCUMULATOR|52=20260512-01:41:21.951|56=RTI_GENERATOR|6=0|11=642c0097-cca0-4f6c-90a5-95c62964e840|14=0|17=4d89b0c6-916c-4c97-9492-cf40bdc62f30|37=6127b1ef-c137-45d2-be8d-c2be3a03aa80|38=1000|39=0|44=800|54=1|55=VALE3|150=0|151=1000|10=020|8=FIX.4.4|9=250|35=8|34=54|49=RTI_ACCUMULATOR|52=20260512-01:41:22.152|56=RTI_GENERATOR|6=0|11=38d2b555-6aa9-4187-9521-c84772c0f8d2|14=0|17=a29fcb5f-bda0-4b2c-b316-678817f19ab4|37=becb60b7-dfcd-4aec-80ec-05b33deb5e3d|38=1000|39=0|44=800|54=1|55=VALE3|150=0|151=1000|10=142|8=FIX.4.4|9=250|35=8|34=55|49=RTI_ACCUMULATOR|52=20260512-01:41:22.347|56=RTI_GENERATOR|6=0|11=30f917b2-d023-4292-948b-1f671314a198|14=0|17=e92194e6-cf17-468b-ab5f-00c6633175d9|37=b621ff9b-252e-4474-8749-9fad0d58aae1|38=1000|39=0|44=800|54=1|55=VALE3|150=0|151=1000|10=015|8=FIX.4.4|9=250|35=8|34=56|49=RTI_ACCUMULATOR|52=20260512-01:41:22.536|56=RTI_GENERATOR|6=0|11=c9cef806-f0e3-44c0-8acd-3de9729fd046|14=0|17=b1c431cc-b853-44cd-9cc5-c5e9472e1a44|37=de6d6963-f62f-411f-8049-18b44c26c117|38=1000|39=0|44=800|54=1|55=VALE3|150=0|151=1000|10=139|8=FIX.4.4|9=250|35=8|34=57|49=RTI_ACCUMULATOR|52=20260512-01:41:22.717|56=RTI_GENERATOR|6=0|11=ec1a700e-bc96-498c-aef2-dce759099533|14=0|17=6e7add68-42d1-47e0-8001-4f01ab54d9c6|37=05582bd8-df0f-4a5b-accf-6de8126cf4ed|38=1000|39=0|44=800|54=1|55=VALE3|150=0|151=1000|10=117|8=FIX.4.4|9=250|35=8|34=58|49=RTI_ACCUMULATOR|52=20260512-01:41:22.901|56=RTI_GENERATOR|6=0|11=e6621e65-ff83-462e-b1e3-45349df0c8b3|14=0|17=5e08d4d1-e5d5-43e2-b4fc-33773bc3b222|37=d1b89217-ffa9-4bde-ab85-8281c99a20ef|38=1000|39=0|44=800|54=1|55=VALE3|150=0|151=1000|10=181|8=FIX.4.4|9=250|35=8|34=59|49=RTI_ACCUMULATOR|52=20260512-01:41:23.086|56=RTI_GENERATOR|6=0|11=9bfbb8eb-b703-436d-8e74-0a10cbbde744|14=0|17=9d2de095-531f-4c58-bed4-364f7973ff31|37=9b28d427-7974-480d-8821-7c99f05e49c1|38=1000|39=0|44=800|54=1|55=VALE3|150=0|151=1000|10=030|8=FIX.4.4|9=250|35=8|34=60|49=RTI_ACCUMULATOR|52=20260512-01:41:23.241|56=RTI_GENERATOR|6=0|11=8b65883a-4892-4f9f-bd0a-2c9e3475e992|14=0|17=b18499ac-5b97-4eb3-974d-3d1ec58a1da0|37=e33000e5-b6ca-482f-ae2f-8a564e22d738|38=1000|39=0|44=800|54=1|55=VALE3|150=0|151=1000|10=094|8=FIX.4.4|9=250|35=8|34=61|49=RTI_ACCUMULATOR|52=20260512-01:41:23.440|56=RTI_GENERATOR|6=0|11=eb411507-16f4-4d06-89f5-f3c8bd8c896e|14=0|17=f2c5b4da-990c-408c-89b7-291d1637c81a|37=8596b7ad-d28a-4682-bd30-df683ee871b4|38=1000|39=0|44=800|54=1|55=VALE3|150=0|151=1000|10=062|8=FIX.4.4|9=250|35=8|34=62|49=RTI_ACCUMULATOR|52=20260512-01:41:23.590|56=RTI_GENERATOR|6=0|11=016240cb-99a3-4398-9440-dd0b01e44b7f|14=0|17=1b2b0a0f-79ae-4a7c-a446-14b89b4397f9|37=bf7a6ab7-3198-4c98-b69a-e8e9b5710db3|38=1000|39=0|44=800|54=1|55=VALE3|150=0|151=1000|10=036|8=FIX.4.4|9=250|35=8|34=63|49=RTI_ACCUMULATOR|52=20260512-01:41:23.753|56=RTI_GENERATOR|6=0|11=573944ef-ac32-4ec7-b9ab-d8569880b9bb|14=0|17=b59834b9-943f-4162-9848-b813b1bd5e28|37=126d2c98-260e-4d83-bca9-7c213e43aa3f|38=1000|39=0|44=800|54=1|55=VALE3|150=0|151=1000|10=012|8=FIX.4.4|9=250|35=8|34=64|49=RTI_ACCUMULATOR|52=20260512-01:41:23.923|56=RTI_GENERATOR|6=0|11=efb75f7b-9450-4c3e-8fc2-044973b7ded3|14=0|17=9536ca47-63c9-411c-a505-d981d7146615|37=dcf93b96-70cf-47e7-b939-df2905989a55|38=1000|39=0|44=800|54=1|55=VALE3|150=0|151=1000|10=200|8=FIX.4.4|9=250|35=8|34=65|49=RTI_ACCUMULATOR|52=20260512-01:41:24.087|56=RTI_GENERATOR|6=0|11=5febdb68-56d3-4a7d-92c3-4a5be263ba1a|14=0|17=ea47783e-ffe4-4681-9454-d423bf2bbe1a|37=3cb9c32c-1035-49b2-963c-fe9676c80aa3|38=1000|39=0|44=800|54=1|55=VALE3|150=0|151=1000|10=017|8=FIX.4.4|9=250|35=8|34=66|49=RTI_ACCUMULATOR|52=20260512-01:41:24.270|56=RTI_GENERATOR|6=0|11=16597ec4-7474-4fd5-948b-0393261ea40c|14=0|17=5a96be9f-f5c8-438b-b09f-4ca70cd1ffdf|37=e5b458cd-f993-4888-8f42-2cd035cc9bf0|38=1000|39=0|44=800|54=1|55=VALE3|150=0|151=1000|10=220|8=FIX.4.4|9=250|35=8|34=67|49=RTI_ACCUMULATOR|52=20260512-01:41:24.445|56=RTI_GENERATOR|6=0|11=02f913fa-a4ad-47e3-81cf-eb31a8d886be|14=0|17=9a158d7d-6030-4775-a0f1-46b30d156fa7|37=9d991fb8-aa7d-4794-b555-a4146511b71c|38=1000|39=0|44=800|54=1|55=VALE3|150=0|151=1000|10=035|8=FIX.4.4|9=250|35=8|34=68|49=RTI_ACCUMULATOR|52=20260512-01:41:24.628|56=RTI_GENERATOR|6=0|11=79654a55-4405-4261-9180-364c6864cf05|14=0|17=59a136fd-e615-4d68-9260-270f93a5fb92|37=ad4d1ef7-ef82-4759-93fc-2df68853c6e1|38=1000|39=0|44=800|54=1|55=VALE3|150=0|151=1000|10=216|8=FIX.4.4|9=250|35=8|34=69|49=RTI_ACCUMULATOR|52=20260512-01:41:25.974|56=RTI_GENERATOR|6=0|11=ea92e9e3-6be0-4f11-bdc6-17c3eda29605|14=0|17=9d159c6f-574c-4aa3-a0dd-2edd25cbd012|37=39e49620-c494-4b46-88df-ba674c4fdbdc|38=1000|39=0|44=800|54=1|55=VALE3|150=0|151=1000|10=168|8=FIX.4.4|9=250|35=8|34=70|49=RTI_ACCUMULATOR|52=20260512-01:41:26.154|56=RTI_GENERATOR|6=0|11=f1ee99b8-8d98-4335-baab-b15cefce4181|14=0|17=4e161faf-28c2-466b-98a9-8835adc7fbca|37=c251ed3c-dedd-4d70-a5e0-8fec292c2047|38=1000|39=0|44=800|54=1|55=VALE3|150=0|151=1000|10=006|8=FIX.4.4|9=250|35=8|34=71|49=RTI_ACCUMULATOR|52=20260512-01:41:26.338|56=RTI_GENERATOR|6=0|11=cc6228e0-34e6-4234-a1d8-51863342615b|14=0|17=f3cb1fa7-93da-4c9b-9086-31d9591de829|37=2d620059-1507-4264-a491-aec97148a7bb|38=1000|39=0|44=800|54=1|55=VALE3|150=0|151=1000|10=208|8=FIX.4.4|9=250|35=8|34=72|49=RTI_ACCUMULATOR|52=20260512-01:41:26.505|56=RTI_GENERATOR|6=0|11=29784437-9dba-44e2-8c79-45d2c0828968|14=0|17=67f3aaa9-4139-4955-917b-f258058c0de8|37=c1d41485-e4bc-4622-b38e-a2becb749581|38=1000|39=0|44=800|54=1|55=VALE3|150=0|151=1000|10=041|8=FIX.4.4|9=250|35=8|34=73|49=RTI_ACCUMULATOR|52=20260512-01:41:26.685|56=RTI_GENERATOR|6=0|11=a7064b43-a55d-4780-bd8f-f49895ea4a20|14=0|17=126101f8-d8fd-4747-9bcd-a9b1541b2d0f|37=630e8b7e-9992-42b6-bed8-436676347c9d|38=1000|39=0|44=800|54=1|55=VALE3|150=0|151=1000|10=229|8=FIX.4.4|9=250|35=8|34=74|49=RTI_ACCUMULATOR|52=20260512-01:41:26.843|56=RTI_GENERATOR|6=0|11=a28527be-6ff5-43f7-85c6-be5578c5e657|14=0|17=0a7b62a4-1a4f-47f2-aaf7-01adc0886195|37=cdb02e54-bbc5-4dcf-be65-e75d0c95bcef|38=1000|39=0|44=800|54=1|55=VALE3|150=0|151=1000|10=176|8=FIX.4.4|9=250|35=8|34=75|49=RTI_ACCUMULATOR|52=20260512-01:41:27.027|56=RTI_GENERATOR|6=0|11=12247061-fd50-4264-98de-c9d72d5afe72|14=0|17=b17ad1f7-82f2-4673-bd9f-3e09b47defc1|37=7338e6a2-251f-4e1f-9727-c41249295cbd|38=1000|39=0|44=800|54=1|55=VALE3|150=0|151=1000|10=005|8=FIX.4.4|9=252|35=8|34=76|49=RTI_ACCUMULATOR|52=20260512-01:41:32.253|56=RTI_GENERATOR|6=0|11=34c2abdd-771d-4859-906a-5220af6120fe|14=0|17=58ad2d96-7010-4cba-967a-53892d92bd40|37=4736318e-891d-417a-bc3a-85cabb762279|38=10000|39=0|44=800|54=1|55=VALE3|150=0|151=10000|10=238|8=FIX.4.4|9=252|35=8|34=77|49=RTI_ACCUMULATOR|52=20260512-01:41:34.752|56=RTI_GENERATOR|6=0|11=cabae8dd-23c3-47af-bc4d-4a23bd463a18|14=0|17=5568510e-005f-436b-9a71-e83648059e79|37=412fa2c5-2b0b-4d82-8791-8b9ca4800ad6|38=10000|39=0|44=800|54=1|55=VALE3|150=0|151=10000|10=122|8=FIX.4.4|9=252|35=8|34=78|49=RTI_ACCUMULATOR|52=20260512-01:41:36.597|56=RTI_GENERATOR|6=0|11=341ce0d1-259a-40dc-9d2b-27934d72e9fb|14=0|17=c0543c98-ffea-4f36-ade1-5a007939c72f|37=e8db7172-19ab-4563-8025-db8fe428873d|38=10000|39=0|44=800|54=1|55=VALE3|150=0|151=10000|10=208|8=FIX.4.4|9=252|35=8|34=79|49=RTI_ACCUMULATOR|52=20260512-01:41:37.571|56=RTI_GENERATOR|6=0|11=f55222a9-ec02-44ba-8ad2-1572032c4ac2|14=0|17=ca4be903-9cd1-4710-ba37-7b818e826199|37=8bdee4fb-1ec2-4582-8563-ced0066a77f4|38=10000|39=0|44=800|54=1|55=VALE3|150=0|151=10000|10=123|8=FIX.4.4|9=252|35=8|34=80|49=RTI_ACCUMULATOR|52=20260512-01:41:38.487|56=RTI_GENERATOR|6=0|11=c1651c0f-d970-4ddd-aff7-6f916e16c055|14=0|17=5e6765f8-b37e-43c1-9b2f-ab0875da4e69|37=7321be2a-73f3-429e-a13f-2a47f15bc97a|38=10000|39=0|44=800|54=1|55=VALE3|150=0|151=10000|10=039|8=FIX.4.4|9=252|35=8|34=81|49=RTI_ACCUMULATOR|52=20260512-01:41:39.035|56=RTI_GENERATOR|6=0|11=cbf82ffe-92fe-4596-8ebc-83a236ab76fa|14=0|17=8e4b4973-12ac-4856-ad02-3de238721afd|37=a9f9e139-3da2-4791-8c57-cd45ddfad54f|38=10000|39=0|44=800|54=1|55=VALE3|150=0|151=10000|10=240|8=FIX.4.4|9=275|35=8|34=82|49=RTI_ACCUMULATOR|52=20260512-01:41:43.428|56=RTI_GENERATOR|6=0|11=a06a29d7-75d8-4c96-8ff6-ed0f3b93a15d|14=0|17=e00d0967-7880-4bb3-9e0a-08dc00e3f787|37=629b2645-293b-42cb-a729-3e5afb4f9249|38=10000|39=8|44=800|54=1|55=VALE3|58=Exposure limit exceeded|150=8|151=0|10=092|8=FIX.4.4|9=252|35=8|34=83|49=RTI_ACCUMULATOR|52=20260512-01:41:50.059|56=RTI_GENERATOR|6=0|11=3f028e75-9b5f-4987-af9f-d83f5288833a|14=0|17=52054a08-46f2-424e-8b68-b2c7393e55dd|37=f774459a-7f88-4cd1-aab9-10d3b8607454|38=10000|39=0|44=800|54=2|55=VALE3|150=0|151=10000|10=200|8=FIX.4.4|9=252|35=8|34=84|49=RTI_ACCUMULATOR|52=20260512-01:41:51.897|56=RTI_GENERATOR|6=0|11=e1572094-3445-49b7-b6c8-4bb01c896d47|14=0|17=c471d680-8df0-460f-962f-997f3abbaa05|37=5b987a5f-0de2-49be-8379-3b13d3e1d579|38=10000|39=0|44=800|54=2|55=VALE3|150=0|151=10000|10=034|8=FIX.4.4|9=252|35=8|34=85|49=RTI_ACCUMULATOR|52=20260512-01:41:53.405|56=RTI_GENERATOR|6=0|11=c76ffa61-63a9-4e56-9cb4-1d693b7c44e4|14=0|17=cddc79fb-3486-4856-bf0d-18da78c0d0ea|37=8346e048-2f9c-4f0b-a5f8-f609049200fd|38=10000|39=0|44=800|54=2|55=VALE3|150=0|151=10000|10=047|8=FIX.4.4|9=252|35=8|34=86|49=RTI_ACCUMULATOR|52=20260512-01:41:54.738|56=RTI_GENERATOR|6=0|11=530eca0d-69fb-406b-a543-4e50593cdee0|14=0|17=e59c2af1-8b22-4f92-afe7-3ae5ee20b374|37=e72c4698-5703-41d4-a157-3f30c2d0e13e|38=10000|39=0|44=800|54=2|55=VALE3|150=0|151=10000|10=215|8=FIX.4.4|9=252|35=8|34=87|49=RTI_ACCUMULATOR|52=20260512-01:41:56.094|56=RTI_GENERATOR|6=0|11=be993fe7-ca1a-4562-a283-3595d36f826e|14=0|17=5d3d8ebf-b30a-4d3b-bf47-d607f6306952|37=355dcef7-d127-4125-a47a-a4ef69eb51f1|38=10000|39=0|44=800|54=2|55=VALE3|150=0|151=10000|10=041|8=FIX.4.4|9=252|35=8|34=88|49=RTI_ACCUMULATOR|52=20260512-01:42:02.679|56=RTI_GENERATOR|6=0|11=edac5802-69e3-471f-a111-c7141c26f0b0|14=0|17=b019e6aa-7e5d-433e-9768-840cdf75d2ae|37=7ee6138d-bfe6-484e-95c1-22c61b7da89c|38=10000|39=0|44=800|54=2|55=PETR4|150=0|151=10000|10=054|8=FIX.4.4|9=252|35=8|34=89|49=RTI_ACCUMULATOR|52=20260512-01:42:03.986|56=RTI_GENERATOR|6=0|11=9668d90f-6924-4455-bba1-628c65ef04f8|14=0|17=c92092f6-997f-4f83-b1ce-1ab3a3b2af7d|37=f468ae59-efd0-43f2-bbf6-3e4c1626c106|38=10000|39=0|44=800|54=2|55=PETR4|150=0|151=10000|10=031|8=FIX.4.4|9=252|35=8|34=90|49=RTI_ACCUMULATOR|52=20260512-01:42:05.315|56=RTI_GENERATOR|6=0|11=9c178cb8-90a9-451f-a291-b6c40f6b5bc0|14=0|17=a5f7188d-61c9-4f6e-9ee9-5136a8650e33|37=16fbfb0d-a529-40a0-9f1d-7a058f850b48|38=10000|39=0|44=800|54=2|55=PETR4|150=0|151=10000|10=161|8=FIX.4.4|9=252|35=8|34=91|49=RTI_ACCUMULATOR|52=20260512-01:42:05.837|56=RTI_GENERATOR|6=0|11=c8684867-508d-4c8c-acbc-bd3b3597d73b|14=0|17=81dd8e16-9eea-466a-bf67-5b037ee4b40b|37=a6baeed6-ead8-4889-b240-874fafb5e4cd|38=10000|39=0|44=800|54=2|55=PETR4|150=0|151=10000|10=153|8=FIX.4.4|9=252|35=8|34=92|49=RTI_ACCUMULATOR|52=20260512-01:42:06.255|56=RTI_GENERATOR|6=0|11=d46015bc-7e41-4afd-91d2-5e55b64d2b2b|14=0|17=8d588f14-f336-4282-b617-1f5090b64a0c|37=dd65022b-e52c-4c15-ad33-c374d0b30cf3|38=10000|39=0|44=800|54=2|55=PETR4|150=0|151=10000|10=112|8=FIX.4.4|9=252|35=8|34=93|49=RTI_ACCUMULATOR|52=20260512-01:42:06.420|56=RTI_GENERATOR|6=0|11=fcd1946b-0b92-4f45-b184-1caa33955840|14=0|17=b3d3c7f1-8f3a-44db-9561-f407ab4429a3|37=9c2d541b-43ff-486c-8bdf-474c5862ac80|38=10000|39=0|44=800|54=2|55=PETR4|150=0|151=10000|10=148|8=FIX.4.4|9=252|35=8|34=94|49=RTI_ACCUMULATOR|52=20260512-01:42:06.596|56=RTI_GENERATOR|6=0|11=badd5b8f-818f-4972-89d4-db1a15ebee61|14=0|17=c37a341b-b760-4d84-b1f8-227fe686c560|37=4dc520a7-86ae-4cfb-9278-92c56bcab6b7|38=10000|39=0|44=800|54=2|55=PETR4|150=0|151=10000|10=163|8=FIX.4.4|9=252|35=8|34=95|49=RTI_ACCUMULATOR|52=20260512-01:42:06.792|56=RTI_GENERATOR|6=0|11=a3c366f5-899d-4d96-b209-63328b107161|14=0|17=f82182b9-2eef-43cb-9e6d-804ff6ff217d|37=61e83da2-1482-41ad-93cf-115baa309143|38=10000|39=0|44=800|54=2|55=PETR4|150=0|151=10000|10=021|8=FIX.4.4|9=252|35=8|34=96|49=RTI_ACCUMULATOR|52=20260512-01:42:06.979|56=RTI_GENERATOR|6=0|11=f63d748c-abab-4782-81cd-6ee1ec158ecb|14=0|17=9a9712ed-40ba-420b-a74c-2e4d16bc3d4a|37=4b0ddd74-140f-43ba-a30a-de8facb00ee6|38=10000|39=0|44=800|54=2|55=PETR4|150=0|151=10000|10=231|8=FIX.4.4|9=252|35=8|34=97|49=RTI_ACCUMULATOR|52=20260512-01:42:07.148|56=RTI_GENERATOR|6=0|11=82571779-4970-4e0f-bc68-8adce52070f2|14=0|17=c86fed4e-97bb-42e0-ab0c-f7147af1761b|37=e51f4807-3219-42f0-a58d-cfb80f01b0fd|38=10000|39=0|44=800|54=2|55=PETR4|150=0|151=10000|10=254|8=FIX.4.4|9=252|35=8|34=98|49=RTI_ACCUMULATOR|52=20260512-01:42:07.329|56=RTI_GENERATOR|6=0|11=ee010a48-6975-43e6-9092-c9d4302f3f1b|14=0|17=5e98d03e-3d7e-469c-9582-361ac7286749|37=e4049129-6758-4312-83c8-ea3f4cbcf840|38=10000|39=0|44=800|54=2|55=PETR4|150=0|151=10000|10=073|8=FIX.4.4|9=252|35=8|34=99|49=RTI_ACCUMULATOR|52=20260512-01:42:07.508|56=RTI_GENERATOR|6=0|11=70218c76-6e33-49f1-88d0-aa5bc9581a5e|14=0|17=daaabab7-38dd-4489-9eb9-de6705482b72|37=806a06ea-d806-42fe-85bf-b722777bde03|38=10000|39=0|44=800|54=2|55=PETR4|150=0|151=10000|10=019|8=FIX.4.4|9=276|35=8|34=100|49=RTI_ACCUMULATOR|52=20260512-01:42:07.680|56=RTI_GENERATOR|6=0|11=fb5797ad-2375-4935-9fdf-fb76e79bd2de|14=0|17=27652117-3f1b-4147-b916-ddeecbb02570|37=5d6477f4-91da-460c-abcd-01917f1f05db|38=10000|39=8|44=800|54=2|55=PETR4|58=Exposure limit exceeded|150=8|151=0|10=078|8=FIX.4.4|9=276|35=8|34=101|49=RTI_ACCUMULATOR|52=20260512-01:42:08.007|56=RTI_GENERATOR|6=0|11=6ff7857e-0adc-4aa1-b91d-2f971c787cf0|14=0|17=fd7af491-1aaf-4370-9e0f-0a44a65ccd9c|37=424fe318-64a4-4aae-b5c6-5928ae99b027|38=10000|39=8|44=800|54=2|55=PETR4|58=Exposure limit exceeded|150=8|151=0|10=213|8=FIX.4.4|9=276|35=8|34=102|49=RTI_ACCUMULATOR|52=20260512-01:42:08.188|56=RTI_GENERATOR|6=0|11=3e886d15-50d8-4b38-b778-6e0fa419d5aa|14=0|17=77279710-a1a1-4860-8a65-6e5652675112|37=59d8945c-6838-4585-a264-0e19b5985a6e|38=10000|39=8|44=800|54=2|55=PETR4|58=Exposure limit exceeded|150=8|151=0|10=167|8=FIX.4.4|9=276|35=8|34=103|49=RTI_ACCUMULATOR|52=20260512-01:42:08.393|56=RTI_GENERATOR|6=0|11=fe50330b-12ba-44e4-bed7-01dfee08a4cd|14=0|17=8d0ff8ae-7ed7-477d-a16e-b0d178f5df69|37=734235e7-2bb3-4e56-9f58-7c0e2dcd7233|38=10000|39=8|44=800|54=2|55=PETR4|58=Exposure limit exceeded|150=8|151=0|10=013|8=FIX.4.4|9=276|35=8|34=104|49=RTI_ACCUMULATOR|52=20260512-01:42:08.576|56=RTI_GENERATOR|6=0|11=5cf9e6d5-6e09-4f16-8230-691c5decb0c5|14=0|17=10097f6f-e232-4909-85ea-3dfcdb1f4e1f|37=a15c3669-08e3-4d6b-be46-0db4daae8682|38=10000|39=8|44=800|54=2|55=PETR4|58=Exposure limit exceeded|150=8|151=0|10=133|8=FIX.4.4|9=276|35=8|34=105|49=RTI_ACCUMULATOR|52=20260512-01:42:08.760|56=RTI_GENERATOR|6=0|11=48ad5dae-6eeb-4cc3-b02f-dbb9effde41e|14=0|17=c4eb0f13-6a34-4a79-b0db-1ce15707c1c9|37=62c76b6e-5c39-41bb-854c-9937b394af03|38=10000|39=8|44=800|54=2|55=PETR4|58=Exposure limit exceeded|150=8|151=0|10=141|8=FIX.4.4|9=276|35=8|34=106|49=RTI_ACCUMULATOR|52=20260512-01:42:08.941|56=RTI_GENERATOR|6=0|11=31585dc1-f822-40a0-8e73-90489acb145b|14=0|17=8842124d-dcde-43f4-a259-583a4bb5e6d3|37=a42f6402-4afe-4d34-882e-0e57697e59ff|38=10000|39=8|44=800|54=2|55=PETR4|58=Exposure limit exceeded|150=8|151=0|10=103|8=FIX.4.4|9=276|35=8|34=107|49=RTI_ACCUMULATOR|52=20260512-01:42:11.227|56=RTI_GENERATOR|6=0|11=9f9119e6-5295-4365-84f3-ab94ad45cefc|14=0|17=e86567bd-5542-4889-9852-8325f4940084|37=3701c731-d1f8-495c-bfbd-a4cde128f5b4|38=10000|39=8|44=800|54=2|55=PETR4|58=Exposure limit exceeded|150=8|151=0|10=245|8=FIX.4.4|9=276|35=8|34=108|49=RTI_ACCUMULATOR|52=20260512-01:42:14.614|56=RTI_GENERATOR|6=0|11=5944bc06-650e-45eb-97b3-e967111714d6|14=0|17=4cfd6a5c-77ef-4927-a972-dae85f4b658b|37=a2226aeb-6ef3-4676-9d5b-13a1da3f28bc|38=10000|39=8|44=800|54=2|55=PETR4|58=Exposure limit exceeded|150=8|151=0|10=042|8=FIX.4.4|9=73|35=0|34=109|49=RTI_ACCUMULATOR|52=20260512-01:42:44.629|56=RTI_GENERATOR|10=196|8=FIX.4.4|9=73|35=0|34=110|49=RTI_ACCUMULATOR|52=20260512-01:43:14.653|56=RTI_GENERATOR|10=183|8=FIX.4.4|9=73|35=0|34=111|49=RTI_ACCUMULATOR|52=20260512-01:43:44.669|56=RTI_GENERATOR|10=194|8=FIX.4.4|9=73|35=0|34=112|49=RTI_ACCUMULATOR|52=20260512-01:44:14.679|56=RTI_GENERATOR|10=194|