8=FIX.4.4|9=174|35=D|34=1|49=RTI_GENERATOR|52=20260511-06:02:22.548|56=RTI_ACCUMULATOR|11=05cda7ae-a55f-457b-924d-d0e59409833b|38=99999|40=2|44=999.99|54=1|55=PETR4|60=20260511-06:02:22.548|10=000|