8=FIX.4.4|9=89|35=A|34=1|49=RTI_GENERATOR|52=20260512-01:39:46.536|56=RTI_ACCUMULATOR|98=0|108=30|141=Y|10=190|8=FIX.4.4|9=168|35=D|34=2|49=RTI_GENERATOR|52=20260512-01:40:08.892|56=RTI_ACCUMULATOR|11=325e6d8e-10ca-4a02-9e86-08045c07e1d4|38=500|40=2|44=10|54=1|55=VALE3|60=20260512-01:40:08.888|10=030|8=FIX.4.4|9=168|35=D|34=3|49=RTI_GENERATOR|52=20260512-01:40:16.032|56=RTI_ACCUMULATOR|11=70122415-13aa-4b63-b24c-2df49956b998|38=500|40=2|44=10|54=1|55=VALE3|60=20260512-01:40:16.032|10=164|8=FIX.4.4|9=168|35=D|34=4|49=RTI_GENERATOR|52=20260512-01:40:18.753|56=RTI_ACCUMULATOR|11=56b2421b-f519-44fe-80d0-9e985fd06dea|38=500|40=2|44=10|54=1|55=VALE3|60=20260512-01:40:18.753|10=136|8=FIX.4.4|9=169|35=D|34=5|49=RTI_GENERATOR|52=20260512-01:40:24.822|56=RTI_ACCUMULATOR|11=5104f005-561a-4401-b2f1-8983c8d8bd8b|38=500|40=2|44=100|54=1|55=VALE3|60=20260512-01:40:24.822|10=013|8=FIX.4.4|9=169|35=D|34=6|49=RTI_GENERATOR|52=20260512-01:40:26.797|56=RTI_ACCUMULATOR|11=125134d8-a2b7-4521-ac3f-7478eeb22fec|38=500|40=2|44=100|54=1|55=VALE3|60=20260512-01:40:26.797|10=184|8=FIX.4.4|9=169|35=D|34=7|49=RTI_GENERATOR|52=20260512-01:40:28.894|56=RTI_ACCUMULATOR|11=a42b7c30-97ac-45bc-914d-4da905cf833f|38=500|40=2|44=100|54=1|55=VALE3|60=20260512-01:40:28.894|10=238|8=FIX.4.4|9=169|35=D|34=8|49=RTI_GENERATOR|52=20260512-01:40:30.448|56=RTI_ACCUMULATOR|11=78f3fa13-970d-4c7c-8dc9-63c5954770e3|38=500|40=2|44=100|54=1|55=VALE3|60=20260512-01:40:30.448|10=098|8=FIX.4.4|9=169|35=D|34=9|49=RTI_GENERATOR|52=20260512-01:40:46.080|56=RTI_ACCUMULATOR|11=fd95a258-fd05-4dbb-a6b9-a1b31e8ad634|38=500|40=2|44=800|54=1|55=VALE3|60=20260512-01:40:46.080|10=059|8=FIX.4.4|9=170|35=D|34=10|49=RTI_GENERATOR|52=20260512-01:40:49.733|56=RTI_ACCUMULATOR|11=d727195e-d7d8-4218-bdd7-006b16d9f2bc|38=500|40=2|44=800|54=1|55=VALE3|60=20260512-01:40:49.733|10=231|8=FIX.4.4|9=170|35=D|34=11|49=RTI_GENERATOR|52=20260512-01:40:51.286|56=RTI_ACCUMULATOR|11=6edef637-76d8-4cb3-ae3d-ff19e9e12888|38=500|40=2|44=800|54=1|55=VALE3|60=20260512-01:40:51.286|10=088|8=FIX.4.4|9=170|35=D|34=12|49=RTI_GENERATOR|52=20260512-01:40:53.006|56=RTI_ACCUMULATOR|11=9518efc6-2ae6-4331-9fa0-a228dbe0e317|38=500|40=2|44=800|54=1|55=VALE3|60=20260512-01:40:53.006|10=197|8=FIX.4.4|9=170|35=D|34=13|49=RTI_GENERATOR|52=20260512-01:40:53.205|56=RTI_ACCUMULATOR|11=65d2ee29-d9d3-4a7b-a116-53fb8cf7aec2|38=500|40=2|44=800|54=1|55=VALE3|60=20260512-01:40:53.205|10=096|8=FIX.4.4|9=170|35=D|34=14|49=RTI_GENERATOR|52=20260512-01:40:53.393|56=RTI_ACCUMULATOR|11=75b8de7d-3cad-4899-94b4-5f285b2728b3|38=500|40=2|44=800|54=1|55=VALE3|60=20260512-01:40:53.393|10=199|8=FIX.4.4|9=170|35=D|34=15|49=RTI_GENERATOR|52=20260512-01:40:53.563|56=RTI_ACCUMULATOR|11=1f9d1347-8889-42c1-a110-da2504154d0e|38=500|40=2|44=800|54=1|55=VALE3|60=20260512-01:40:53.563|10=016|8=FIX.4.4|9=170|35=D|34=16|49=RTI_GENERATOR|52=20260512-01:40:53.754|56=RTI_ACCUMULATOR|11=9cd089c4-e5a8-4ef3-bf0a-fbc37e4ef79c|38=500|40=2|44=800|54=1|55=VALE3|60=20260512-01:40:53.754|10=227|8=FIX.4.4|9=170|35=D|34=17|49=RTI_GENERATOR|52=20260512-01:40:53.940|56=RTI_ACCUMULATOR|11=7bbd38a3-4d96-4286-b81c-d61f7741ab68|38=500|40=2|44=800|54=1|55=VALE3|60=20260512-01:40:53.940|10=184|8=FIX.4.4|9=170|35=D|34=18|49=RTI_GENERATOR|52=20260512-01:40:54.519|56=RTI_ACCUMULATOR|11=afdf57a1-3588-4260-8d67-a9a1e3fda310|38=500|40=2|44=800|54=1|55=VALE3|60=20260512-01:40:54.519|10=226|8=FIX.4.4|9=170|35=D|34=19|49=RTI_GENERATOR|52=20260512-01:40:54.699|56=RTI_ACCUMULATOR|11=1e50c559-99f8-4e26-936b-6cd8ff6ef774|38=500|40=2|44=800|54=1|55=VALE3|60=20260512-01:40:54.699|10=240|8=FIX.4.4|9=170|35=D|34=20|49=RTI_GENERATOR|52=20260512-01:40:54.897|56=RTI_ACCUMULATOR|11=58d9f217-898e-4e91-a9ac-5d161bdb3356|38=500|40=2|44=800|54=1|55=VALE3|60=20260512-01:40:54.897|10=209|8=FIX.4.4|9=170|35=D|34=21|49=RTI_GENERATOR|52=20260512-01:40:55.100|56=RTI_ACCUMULATOR|11=5a259a6f-a0a4-46d4-bbc4-b3a7c8bf54eb|38=500|40=2|44=800|54=1|55=VALE3|60=20260512-01:40:55.100|10=121|8=FIX.4.4|9=171|35=D|34=22|49=RTI_GENERATOR|52=20260512-01:41:03.142|56=RTI_ACCUMULATOR|11=a0b6f3fd-2ea2-4e3d-8c4d-54456d58cf9a|38=1000|40=2|44=800|54=1|55=VALE3|60=20260512-01:41:03.142|10=134|8=FIX.4.4|9=171|35=D|34=23|49=RTI_GENERATOR|52=20260512-01:41:06.019|56=RTI_ACCUMULATOR|11=4e7dbe14-b87c-45b1-b551-8eae15e9a3d1|38=1000|40=2|44=800|54=1|55=VALE3|60=20260512-01:41:06.019|10=091|8=FIX.4.4|9=171|35=D|34=24|49=RTI_GENERATOR|52=20260512-01:41:07.149|56=RTI_ACCUMULATOR|11=ea63c8fa-9fdc-461f-a90c-51437faeb7e5|38=1000|40=2|44=800|54=1|55=VALE3|60=20260512-01:41:07.149|10=209|8=FIX.4.4|9=171|35=D|34=25|49=RTI_GENERATOR|52=20260512-01:41:07.688|56=RTI_ACCUMULATOR|11=6f79e081-3d5f-466b-a211-ca11be889a2f|38=1000|40=2|44=800|54=1|55=VALE3|60=20260512-01:41:07.688|10=028|8=FIX.4.4|9=171|35=D|34=26|49=RTI_GENERATOR|52=20260512-01:41:07.914|56=RTI_ACCUMULATOR|11=0d5627bf-7eb2-4545-90c7-3fb3d82b702f|38=1000|40=2|44=800|54=1|55=VALE3|60=20260512-01:41:07.913|10=220|8=FIX.4.4|9=171|35=D|34=27|49=RTI_GENERATOR|52=20260512-01:41:08.119|56=RTI_ACCUMULATOR|11=23f2a563-63f7-43ef-b96e-5f1688ad9476|38=1000|40=2|44=800|54=1|55=VALE3|60=20260512-01:41:08.118|10=194|8=FIX.4.4|9=171|35=D|34=28|49=RTI_GENERATOR|52=20260512-01:41:08.311|56=RTI_ACCUMULATOR|11=0701e488-e0bf-481e-9ea3-58a96f25c574|38=1000|40=2|44=800|54=1|55=VALE3|60=20260512-01:41:08.311|10=172|8=FIX.4.4|9=171|35=D|34=29|49=RTI_GENERATOR|52=20260512-01:41:08.884|56=RTI_ACCUMULATOR|11=a8870723-04dd-4644-8fac-d8d51afe56a3|38=1000|40=2|44=800|54=1|55=VALE3|60=20260512-01:41:08.884|10=033|8=FIX.4.4|9=171|35=D|34=30|49=RTI_GENERATOR|52=20260512-01:41:09.078|56=RTI_ACCUMULATOR|11=982107ed-3ac8-4f62-a2e8-2e0934e2326f|38=1000|40=2|44=800|54=1|55=VALE3|60=20260512-01:41:09.078|10=176|8=FIX.4.4|9=171|35=D|34=31|49=RTI_GENERATOR|52=20260512-01:41:09.255|56=RTI_ACCUMULATOR|11=d0db5541-6103-44c1-9c9c-aa2dfe058a0b|38=1000|40=2|44=800|54=1|55=VALE3|60=20260512-01:41:09.255|10=033|8=FIX.4.4|9=171|35=D|34=32|49=RTI_GENERATOR|52=20260512-01:41:09.434|56=RTI_ACCUMULATOR|11=f3829ebe-9231-4584-a78d-222be8826f20|38=1000|40=2|44=800|54=1|55=VALE3|60=20260512-01:41:09.434|10=131|8=FIX.4.4|9=171|35=D|34=33|49=RTI_GENERATOR|52=20260512-01:41:09.595|56=RTI_ACCUMULATOR|11=2235d096-5527-4ed8-a687-88a609ce17d5|38=1000|40=2|44=800|54=1|55=VALE3|60=20260512-01:41:09.595|10=109|8=FIX.4.4|9=171|35=D|34=34|49=RTI_GENERATOR|52=20260512-01:41:09.771|56=RTI_ACCUMULATOR|11=f42afcd6-511f-4a6f-bafc-fefb44548f10|38=1000|40=2|44=800|54=1|55=VALE3|60=20260512-01:41:09.771|10=253|8=FIX.4.4|9=171|35=D|34=35|49=RTI_GENERATOR|52=20260512-01:41:09.973|56=RTI_ACCUMULATOR|11=5d6dfa1d-2be8-42c5-ba62-6d952a4a9d06|38=1000|40=2|44=800|54=1|55=VALE3|60=20260512-01:41:09.973|10=117|8=FIX.4.4|9=171|35=D|34=36|49=RTI_GENERATOR|52=20260512-01:41:10.155|56=RTI_ACCUMULATOR|11=e21674ca-b9a1-40a2-b595-1fd575be0e9e|38=1000|40=2|44=800|54=1|55=VALE3|60=20260512-01:41:10.155|10=038|8=FIX.4.4|9=171|35=D|34=37|49=RTI_GENERATOR|52=20260512-01:41:10.342|56=RTI_ACCUMULATOR|11=67896942-573d-4263-9d85-9ecb20ecffad|38=1000|40=2|44=800|54=1|55=VALE3|60=20260512-01:41:10.342|10=228|8=FIX.4.4|9=171|35=D|34=38|49=RTI_GENERATOR|52=20260512-01:41:10.530|56=RTI_ACCUMULATOR|11=43ffbb4d-660b-4cb1-9e9f-ae8d7744873e|38=1000|40=2|44=800|54=1|55=VALE3|60=20260512-01:41:10.530|10=105|8=FIX.4.4|9=171|35=D|34=39|49=RTI_GENERATOR|52=20260512-01:41:12.282|56=RTI_ACCUMULATOR|11=41232c73-bfe7-45ba-b9e0-10ea0972d915|38=1000|40=2|44=800|54=1|55=VALE3|60=20260512-01:41:12.282|10=200|8=FIX.4.4|9=171|35=D|34=40|49=RTI_GENERATOR|52=20260512-01:41:12.624|56=RTI_ACCUMULATOR|11=36747349-3cd6-4979-80b3-c04dffa3ff57|38=1000|40=2|44=800|54=1|55=VALE3|60=20260512-01:41:12.624|10=179|8=FIX.4.4|9=171|35=D|34=41|49=RTI_GENERATOR|52=20260512-01:41:12.801|56=RTI_ACCUMULATOR|11=ecfbf2ce-6c56-4eb8-a95b-6cb9d1762f47|38=1000|40=2|44=800|54=1|55=VALE3|60=20260512-01:41:12.801|10=199|8=FIX.4.4|9=171|35=D|34=42|49=RTI_GENERATOR|52=20260512-01:41:13.003|56=RTI_ACCUMULATOR|11=b721529d-38ad-4005-b5e8-3ec43f8f85d9|38=1000|40=2|44=800|54=1|55=VALE3|60=20260512-01:41:13.003|10=202|8=FIX.4.4|9=171|35=D|34=43|49=RTI_GENERATOR|52=20260512-01:41:13.216|56=RTI_ACCUMULATOR|11=a25e6101-7c52-446c-ad40-00513dac2bc5|38=1000|40=2|44=800|54=1|55=VALE3|60=20260512-01:41:13.216|10=167|8=FIX.4.4|9=171|35=D|34=44|49=RTI_GENERATOR|52=20260512-01:41:13.608|56=RTI_ACCUMULATOR|11=a3b19419-1626-4e4e-aa66-4dbc57e0ceb8|38=1000|40=2|44=800|54=1|55=VALE3|60=20260512-01:41:13.608|10=050|8=FIX.4.4|9=171|35=D|34=45|49=RTI_GENERATOR|52=20260512-01:41:13.798|56=RTI_ACCUMULATOR|11=46e58864-229c-42b5-9047-af0c4e55d286|38=1000|40=2|44=800|54=1|55=VALE3|60=20260512-01:41:13.798|10=106|8=FIX.4.4|9=171|35=D|34=46|49=RTI_GENERATOR|52=20260512-01:41:13.995|56=RTI_ACCUMULATOR|11=9d3d295b-ac32-4821-8737-120d5a3f8b15|38=1000|40=2|44=800|54=1|55=VALE3|60=20260512-01:41:13.995|10=134|8=FIX.4.4|9=171|35=D|34=47|49=RTI_GENERATOR|52=20260512-01:41:14.226|56=RTI_ACCUMULATOR|11=9a3e0d59-b65c-480e-8a15-24c92a938248|38=1000|40=2|44=800|54=1|55=VALE3|60=20260512-01:41:14.226|10=125|8=FIX.4.4|9=171|35=D|34=48|49=RTI_GENERATOR|52=20260512-01:41:15.104|56=RTI_ACCUMULATOR|11=cd00ac2a-35d0-484e-a632-e7dd4a6453e0|38=1000|40=2|44=800|54=1|55=VALE3|60=20260512-01:41:15.104|10=022|8=FIX.4.4|9=171|35=D|34=49|49=RTI_GENERATOR|52=20260512-01:41:15.299|56=RTI_ACCUMULATOR|11=848010be-2e0d-4301-abe1-a5a385524992|38=1000|40=2|44=800|54=1|55=VALE3|60=20260512-01:41:15.299|10=120|8=FIX.4.4|9=171|35=D|34=50|49=RTI_GENERATOR|52=20260512-01:41:21.358|56=RTI_ACCUMULATOR|11=4e637260-bf8a-4543-aa72-1aa716d98420|38=1000|40=2|44=800|54=1|55=VALE3|60=20260512-01:41:21.358|10=109|8=FIX.4.4|9=171|35=D|34=51|49=RTI_GENERATOR|52=20260512-01:41:21.537|56=RTI_ACCUMULATOR|11=463d501e-c8f6-4be6-adde-1ea8c0258dc5|38=1000|40=2|44=800|54=1|55=VALE3|60=20260512-01:41:21.537|10=146|8=FIX.4.4|9=171|35=D|34=52|49=RTI_GENERATOR|52=20260512-01:41:21.740|56=RTI_ACCUMULATOR|11=0b605543-f66c-40eb-9d6e-e59386874ced|38=1000|40=2|44=800|54=1|55=VALE3|60=20260512-01:41:21.740|10=224|8=FIX.4.4|9=171|35=D|34=53|49=RTI_GENERATOR|52=20260512-01:41:21.946|56=RTI_ACCUMULATOR|11=642c0097-cca0-4f6c-90a5-95c62964e840|38=1000|40=2|44=800|54=1|55=VALE3|60=20260512-01:41:21.946|10=130|8=FIX.4.4|9=171|35=D|34=54|49=RTI_GENERATOR|52=20260512-01:41:22.147|56=RTI_ACCUMULATOR|11=38d2b555-6aa9-4187-9521-c84772c0f8d2|38=1000|40=2|44=800|54=1|55=VALE3|60=20260512-01:41:22.147|10=080|8=FIX.4.4|9=171|35=D|34=55|49=RTI_GENERATOR|52=20260512-01:41:22.341|56=RTI_ACCUMULATOR|11=30f917b2-d023-4292-948b-1f671314a198|38=1000|40=2|44=800|54=1|55=VALE3|60=20260512-01:41:22.341|10=218|8=FIX.4.4|9=171|35=D|34=56|49=RTI_GENERATOR|52=20260512-01:41:22.531|56=RTI_ACCUMULATOR|11=c9cef806-f0e3-44c0-8acd-3de9729fd046|38=1000|40=2|44=800|54=1|55=VALE3|60=20260512-01:41:22.530|10=105|8=FIX.4.4|9=171|35=D|34=57|49=RTI_GENERATOR|52=20260512-01:41:22.714|56=RTI_ACCUMULATOR|11=ec1a700e-bc96-498c-aef2-dce759099533|38=1000|40=2|44=800|54=1|55=VALE3|60=20260512-01:41:22.714|10=067|8=FIX.4.4|9=171|35=D|34=58|49=RTI_GENERATOR|52=20260512-01:41:22.897|56=RTI_ACCUMULATOR|11=e6621e65-ff83-462e-b1e3-45349df0c8b3|38=1000|40=2|44=800|54=1|55=VALE3|60=20260512-01:41:22.897|10=248|8=FIX.4.4|9=171|35=D|34=59|49=RTI_GENERATOR|52=20260512-01:41:23.079|56=RTI_ACCUMULATOR|11=9bfbb8eb-b703-436d-8e74-0a10cbbde744|38=1000|40=2|44=800|54=1|55=VALE3|60=20260512-01:41:23.079|10=155|8=FIX.4.4|9=171|35=D|34=60|49=RTI_GENERATOR|52=20260512-01:41:23.237|56=RTI_ACCUMULATOR|11=8b65883a-4892-4f9f-bd0a-2c9e3475e992|38=1000|40=2|44=800|54=1|55=VALE3|60=20260512-01:41:23.237|10=192|8=FIX.4.4|9=171|35=D|34=61|49=RTI_GENERATOR|52=20260512-01:41:23.439|56=RTI_ACCUMULATOR|11=eb411507-16f4-4d06-89f5-f3c8bd8c896e|38=1000|40=2|44=800|54=1|55=VALE3|60=20260512-01:41:23.439|10=239|8=FIX.4.4|9=171|35=D|34=62|49=RTI_GENERATOR|52=20260512-01:41:23.588|56=RTI_ACCUMULATOR|11=016240cb-99a3-4398-9440-dd0b01e44b7f|38=1000|40=2|44=800|54=1|55=VALE3|60=20260512-01:41:23.588|10=125|8=FIX.4.4|9=171|35=D|34=63|49=RTI_GENERATOR|52=20260512-01:41:23.749|56=RTI_ACCUMULATOR|11=573944ef-ac32-4ec7-b9ab-d8569880b9bb|38=1000|40=2|44=800|54=1|55=VALE3|60=20260512-01:41:23.749|10=088|8=FIX.4.4|9=171|35=D|34=64|49=RTI_GENERATOR|52=20260512-01:41:23.921|56=RTI_ACCUMULATOR|11=efb75f7b-9450-4c3e-8fc2-044973b7ded3|38=1000|40=2|44=800|54=1|55=VALE3|60=20260512-01:41:23.921|10=069|8=FIX.4.4|9=171|35=D|34=65|49=RTI_GENERATOR|52=20260512-01:41:24.086|56=RTI_ACCUMULATOR|11=5febdb68-56d3-4a7d-92c3-4a5be263ba1a|38=1000|40=2|44=800|54=1|55=VALE3|60=20260512-01:41:24.086|10=150|8=FIX.4.4|9=171|35=D|34=66|49=RTI_GENERATOR|52=20260512-01:41:24.269|56=RTI_ACCUMULATOR|11=16597ec4-7474-4fd5-948b-0393261ea40c|38=1000|40=2|44=800|54=1|55=VALE3|60=20260512-01:41:24.269|10=096|8=FIX.4.4|9=171|35=D|34=67|49=RTI_GENERATOR|52=20260512-01:41:24.443|56=RTI_ACCUMULATOR|11=02f913fa-a4ad-47e3-81cf-eb31a8d886be|38=1000|40=2|44=800|54=1|55=VALE3|60=20260512-01:41:24.443|10=152|8=FIX.4.4|9=171|35=D|34=68|49=RTI_GENERATOR|52=20260512-01:41:24.625|56=RTI_ACCUMULATOR|11=79654a55-4405-4261-9180-364c6864cf05|38=1000|40=2|44=800|54=1|55=VALE3|60=20260512-01:41:24.624|10=152|8=FIX.4.4|9=171|35=D|34=69|49=RTI_GENERATOR|52=20260512-01:41:25.969|56=RTI_ACCUMULATOR|11=ea92e9e3-6be0-4f11-bdc6-17c3eda29605|38=1000|40=2|44=800|54=1|55=VALE3|60=20260512-01:41:25.969|10=131|8=FIX.4.4|9=171|35=D|34=70|49=RTI_GENERATOR|52=20260512-01:41:26.150|56=RTI_ACCUMULATOR|11=f1ee99b8-8d98-4335-baab-b15cefce4181|38=1000|40=2|44=800|54=1|55=VALE3|60=20260512-01:41:26.150|10=151|8=FIX.4.4|9=171|35=D|34=71|49=RTI_GENERATOR|52=20260512-01:41:26.334|56=RTI_ACCUMULATOR|11=cc6228e0-34e6-4234-a1d8-51863342615b|38=1000|40=2|44=800|54=1|55=VALE3|60=20260512-01:41:26.333|10=012|8=FIX.4.4|9=171|35=D|34=72|49=RTI_GENERATOR|52=20260512-01:41:26.503|56=RTI_ACCUMULATOR|11=29784437-9dba-44e2-8c79-45d2c0828968|38=1000|40=2|44=800|54=1|55=VALE3|60=20260512-01:41:26.502|10=050|8=FIX.4.4|9=171|35=D|34=73|49=RTI_GENERATOR|52=20260512-01:41:26.679|56=RTI_ACCUMULATOR|11=a7064b43-a55d-4780-bd8f-f49895ea4a20|38=1000|40=2|44=800|54=1|55=VALE3|60=20260512-01:41:26.679|10=246|8=FIX.4.4|9=171|35=D|34=74|49=RTI_GENERATOR|52=20260512-01:41:26.838|56=RTI_ACCUMULATOR|11=a28527be-6ff5-43f7-85c6-be5578c5e657|38=1000|40=2|44=800|54=1|55=VALE3|60=20260512-01:41:26.838|10=010|8=FIX.4.4|9=171|35=D|34=75|49=RTI_GENERATOR|52=20260512-01:41:27.024|56=RTI_ACCUMULATOR|11=12247061-fd50-4264-98de-c9d72d5afe72|38=1000|40=2|44=800|54=1|55=VALE3|60=20260512-01:41:27.024|10=170|8=FIX.4.4|9=172|35=D|34=76|49=RTI_GENERATOR|52=20260512-01:41:32.250|56=RTI_ACCUMULATOR|11=34c2abdd-771d-4859-906a-5220af6120fe|38=10000|40=2|44=800|54=1|55=VALE3|60=20260512-01:41:32.250|10=247|8=FIX.4.4|9=172|35=D|34=77|49=RTI_GENERATOR|52=20260512-01:41:34.746|56=RTI_ACCUMULATOR|11=cabae8dd-23c3-47af-bc4d-4a23bd463a18|38=10000|40=2|44=800|54=1|55=VALE3|60=20260512-01:41:34.745|10=036|8=FIX.4.4|9=172|35=D|34=78|49=RTI_GENERATOR|52=20260512-01:41:36.596|56=RTI_ACCUMULATOR|11=341ce0d1-259a-40dc-9d2b-27934d72e9fb|38=10000|40=2|44=800|54=1|55=VALE3|60=20260512-01:41:36.596|10=081|8=FIX.4.4|9=172|35=D|34=79|49=RTI_GENERATOR|52=20260512-01:41:37.569|56=RTI_ACCUMULATOR|11=f55222a9-ec02-44ba-8ad2-1572032c4ac2|38=10000|40=2|44=800|54=1|55=VALE3|60=20260512-01:41:37.569|10=011|8=FIX.4.4|9=172|35=D|34=80|49=RTI_GENERATOR|52=20260512-01:41:38.482|56=RTI_ACCUMULATOR|11=c1651c0f-d970-4ddd-aff7-6f916e16c055|38=10000|40=2|44=800|54=1|55=VALE3|60=20260512-01:41:38.482|10=122|8=FIX.4.4|9=172|35=D|34=81|49=RTI_GENERATOR|52=20260512-01:41:39.032|56=RTI_ACCUMULATOR|11=cbf82ffe-92fe-4596-8ebc-83a236ab76fa|38=10000|40=2|44=800|54=1|55=VALE3|60=20260512-01:41:39.032|10=009|8=FIX.4.4|9=172|35=D|34=82|49=RTI_GENERATOR|52=20260512-01:41:43.420|56=RTI_ACCUMULATOR|11=a06a29d7-75d8-4c96-8ff6-ed0f3b93a15d|38=10000|40=2|44=800|54=1|55=VALE3|60=20260512-01:41:43.420|10=111|8=FIX.4.4|9=172|35=D|34=83|49=RTI_GENERATOR|52=20260512-01:41:50.030|56=RTI_ACCUMULATOR|11=3f028e75-9b5f-4987-af9f-d83f5288833a|38=10000|40=2|44=800|54=2|55=VALE3|60=20260512-01:41:50.030|10=237|8=FIX.4.4|9=172|35=D|34=84|49=RTI_GENERATOR|52=20260512-01:41:51.893|56=RTI_ACCUMULATOR|11=e1572094-3445-49b7-b6c8-4bb01c896d47|38=10000|40=2|44=800|54=2|55=VALE3|60=20260512-01:41:51.893|10=151|8=FIX.4.4|9=172|35=D|34=85|49=RTI_GENERATOR|52=20260512-01:41:53.398|56=RTI_ACCUMULATOR|11=c76ffa61-63a9-4e56-9cb4-1d693b7c44e4|38=10000|40=2|44=800|54=2|55=VALE3|60=20260512-01:41:53.398|10=097|8=FIX.4.4|9=172|35=D|34=86|49=RTI_GENERATOR|52=20260512-01:41:54.735|56=RTI_ACCUMULATOR|11=530eca0d-69fb-406b-a543-4e50593cdee0|38=10000|40=2|44=800|54=2|55=VALE3|60=20260512-01:41:54.735|10=110|8=FIX.4.4|9=172|35=D|34=87|49=RTI_GENERATOR|52=20260512-01:41:56.090|56=RTI_ACCUMULATOR|11=be993fe7-ca1a-4562-a283-3595d36f826e|38=10000|40=2|44=800|54=2|55=VALE3|60=20260512-01:41:56.090|10=035|8=FIX.4.4|9=172|35=D|34=88|49=RTI_GENERATOR|52=20260512-01:42:02.676|56=RTI_ACCUMULATOR|11=edac5802-69e3-471f-a111-c7141c26f0b0|38=10000|40=2|44=800|54=2|55=PETR4|60=20260512-01:42:02.676|10=023|8=FIX.4.4|9=172|35=D|34=89|49=RTI_GENERATOR|52=20260512-01:42:03.979|56=RTI_ACCUMULATOR|11=9668d90f-6924-4455-bba1-628c65ef04f8|38=10000|40=2|44=800|54=2|55=PETR4|60=20260512-01:42:03.979|10=242|8=FIX.4.4|9=172|35=D|34=90|49=RTI_GENERATOR|52=20260512-01:42:05.311|56=RTI_ACCUMULATOR|11=9c178cb8-90a9-451f-a291-b6c40f6b5bc0|38=10000|40=2|44=800|54=2|55=PETR4|60=20260512-01:42:05.311|10=062|8=FIX.4.4|9=172|35=D|34=91|49=RTI_GENERATOR|52=20260512-01:42:05.835|56=RTI_ACCUMULATOR|11=c8684867-508d-4c8c-acbc-bd3b3597d73b|38=10000|40=2|44=800|54=2|55=PETR4|60=20260512-01:42:05.835|10=150|8=FIX.4.4|9=172|35=D|34=92|49=RTI_GENERATOR|52=20260512-01:42:06.247|56=RTI_ACCUMULATOR|11=d46015bc-7e41-4afd-91d2-5e55b64d2b2b|38=10000|40=2|44=800|54=2|55=PETR4|60=20260512-01:42:06.247|10=119|8=FIX.4.4|9=172|35=D|34=93|49=RTI_GENERATOR|52=20260512-01:42:06.418|56=RTI_ACCUMULATOR|11=fcd1946b-0b92-4f45-b184-1caa33955840|38=10000|40=2|44=800|54=2|55=PETR4|60=20260512-01:42:06.418|10=240|8=FIX.4.4|9=172|35=D|34=94|49=RTI_GENERATOR|52=20260512-01:42:06.593|56=RTI_ACCUMULATOR|11=badd5b8f-818f-4972-89d4-db1a15ebee61|38=10000|40=2|44=800|54=2|55=PETR4|60=20260512-01:42:06.593|10=248|8=FIX.4.4|9=172|35=D|34=95|49=RTI_GENERATOR|52=20260512-01:42:06.789|56=RTI_ACCUMULATOR|11=a3c366f5-899d-4d96-b209-63328b107161|38=10000|40=2|44=800|54=2|55=PETR4|60=20260512-01:42:06.789|10=134|8=FIX.4.4|9=172|35=D|34=96|49=RTI_GENERATOR|52=20260512-01:42:06.971|56=RTI_ACCUMULATOR|11=f63d748c-abab-4782-81cd-6ee1ec158ecb|38=10000|40=2|44=800|54=2|55=PETR4|60=20260512-01:42:06.971|10=035|8=FIX.4.4|9=172|35=D|34=97|49=RTI_GENERATOR|52=20260512-01:42:07.145|56=RTI_ACCUMULATOR|11=82571779-4970-4e0f-bc68-8adce52070f2|38=10000|40=2|44=800|54=2|55=PETR4|60=20260512-01:42:07.145|10=210|8=FIX.4.4|9=172|35=D|34=98|49=RTI_GENERATOR|52=20260512-01:42:07.326|56=RTI_ACCUMULATOR|11=ee010a48-6975-43e6-9092-c9d4302f3f1b|38=10000|40=2|44=800|54=2|55=PETR4|60=20260512-01:42:07.326|10=202|8=FIX.4.4|9=172|35=D|34=99|49=RTI_GENERATOR|52=20260512-01:42:07.506|56=RTI_ACCUMULATOR|11=70218c76-6e33-49f1-88d0-aa5bc9581a5e|38=10000|40=2|44=800|54=2|55=PETR4|60=20260512-01:42:07.506|10=000|8=FIX.4.4|9=173|35=D|34=100|49=RTI_GENERATOR|52=20260512-01:42:07.678|56=RTI_ACCUMULATOR|11=fb5797ad-2375-4935-9fdf-fb76e79bd2de|38=10000|40=2|44=800|54=2|55=PETR4|60=20260512-01:42:07.678|10=014|8=FIX.4.4|9=173|35=D|34=101|49=RTI_GENERATOR|52=20260512-01:42:08.004|56=RTI_ACCUMULATOR|11=6ff7857e-0adc-4aa1-b91d-2f971c787cf0|38=10000|40=2|44=800|54=2|55=PETR4|60=20260512-01:42:08.004|10=216|8=FIX.4.4|9=173|35=D|34=102|49=RTI_GENERATOR|52=20260512-01:42:08.186|56=RTI_ACCUMULATOR|11=3e886d15-50d8-4b38-b778-6e0fa419d5aa|38=10000|40=2|44=800|54=2|55=PETR4|60=20260512-01:42:08.186|10=096|8=FIX.4.4|9=173|35=D|34=103|49=RTI_GENERATOR|52=20260512-01:42:08.391|56=RTI_ACCUMULATOR|11=fe50330b-12ba-44e4-bed7-01dfee08a4cd|38=10000|40=2|44=800|54=2|55=PETR4|60=20260512-01:42:08.391|10=042|8=FIX.4.4|9=173|35=D|34=104|49=RTI_GENERATOR|52=20260512-01:42:08.573|56=RTI_ACCUMULATOR|11=5cf9e6d5-6e09-4f16-8230-691c5decb0c5|38=10000|40=2|44=800|54=2|55=PETR4|60=20260512-01:42:08.573|10=144|8=FIX.4.4|9=173|35=D|34=105|49=RTI_GENERATOR|52=20260512-01:42:08.758|56=RTI_ACCUMULATOR|11=48ad5dae-6eeb-4cc3-b02f-dbb9effde41e|38=10000|40=2|44=800|54=2|55=PETR4|60=20260512-01:42:08.758|10=062|8=FIX.4.4|9=173|35=D|34=106|49=RTI_GENERATOR|52=20260512-01:42:08.938|56=RTI_ACCUMULATOR|11=31585dc1-f822-40a0-8e73-90489acb145b|38=10000|40=2|44=800|54=2|55=PETR4|60=20260512-01:42:08.938|10=253|8=FIX.4.4|9=173|35=D|34=107|49=RTI_GENERATOR|52=20260512-01:42:11.220|56=RTI_ACCUMULATOR|11=9f9119e6-5295-4365-84f3-ab94ad45cefc|38=10000|40=2|44=800|54=2|55=PETR4|60=20260512-01:42:11.220|10=079|8=FIX.4.4|9=173|35=D|34=108|49=RTI_GENERATOR|52=20260512-01:42:14.609|56=RTI_ACCUMULATOR|11=5944bc06-650e-45eb-97b3-e967111714d6|38=10000|40=2|44=800|54=2|55=PETR4|60=20260512-01:42:14.609|10=205|8=FIX.4.4|9=73|35=0|34=109|49=RTI_GENERATOR|52=20260512-01:42:44.639|56=RTI_ACCUMULATOR|10=197|8=FIX.4.4|9=73|35=0|34=110|49=RTI_GENERATOR|52=20260512-01:43:14.653|56=RTI_ACCUMULATOR|10=183|8=FIX.4.4|9=73|35=0|34=111|49=RTI_GENERATOR|52=20260512-01:43:44.663|56=RTI_ACCUMULATOR|10=188|8=FIX.4.4|9=73|35=0|34=112|49=RTI_GENERATOR|52=20260512-01:44:14.679|56=RTI_ACCUMULATOR|10=194|